:100000008316FC308500EB3086008312640081018A
:1000100083168630810083128101232142229510AC
:100020007722061CD629051911280612BD211008B1
:10003000F03A031D1E289514BD2125281008E23C26
:10004000031C0F28900803190F281008E03A031921
:1000500076281008E13A03191A29951B3B28100845
:10006000683C03183B2810087D3C031C3B28693082
:100070001002E6233D28100859238F00FF3A031988
:100080000F280F08713A03194A281008773A031904
:10009000692873289518582819080F0603190F287E
:1000A000951A55285B22951691285D229512C22833
:1000B000FF3099000F289518582819080F060319C2
:1000C0000F28151B66285F2215179128612215132A
:1000D000C22895180F28951B6F2855220F285822E3
:1000E0000F2874308F009518BA2891289510BD21DB
:1000F0001008F03A031D7E289514BD211008123A0D
:1001000003190F281008593A03190F2813228F00DA
:10011000FF3A03190F281008143A03195B289518A1
:10012000BA280F081906031998289519AE28B5287A
:100130000F089900E0200F08733A0319AC280F0844
:10014000743A0319AC280F08383A0319AC280F0881
:10015000703A0319AC28C92015160F280F0898000B
:1001600019088F00E02018088F0095150F089900D6
:1001700050210F28951115121021FF3099008F176B
:1001800050210F289511151210218F130F08990077
:10019000BF288F1750217A227A227A227A221908D0
:1001A0007F394F21DA2008001E3091009822910BF0
:1001B000D62808000A3091009822910BDC2808000C
:1001C000033091001A3084000F080006031908005C
:1001D000840A910BE428033091001A30840000084F
:1001E000FF3A0319F728840A910BEF2808000F083B
:1001F00080000800033092001A3084000008FF3AA3
:1002000003190629D42000087F394F21840A920B54
:10021000FE28033092001A308400102115120800C5
:10022000033091001A308400FF308000840A910B63
:100230001429080007309800552360304F21D4203E
:10024000E0304F210F289501960197019B01850110
:100250001430860001309800BD211008AA3A031915
:100260003429980B2C29432106128F019001FF306D
:100270009900033091001A308400FF308000840A16
:10028000910B3D29080077220330930006168E2239
:100290008E2206128E228E22930B462908008F0092
:1002A00086185029940108309100061157295829C1
:1002B000000082228F0C03186029000006116329B8
:1002C0000615940A0000910B5929822288221418DD
:1002D0006B2906156D290611000082228822061559
:1002E00082228822732908008618742908000618BB
:1002F00077297A290000FF308F00083092008B2286
:10030000061C8429151108008222882287298F0C57
:10031000061C8C298F178E298F1300008222920BC6
:10032000872982228822942988220800900094013B
:1003300008309100712275227A226F2288226C2265
:100340008B22900C0318A6297522A8297322940ADF
:100350006922910B9F296C228B221418B1297322D8
:10036000B229752269226C228B22732269226C22A7
:100370006922051DB92971220800772290010830F1
:1003800091000519C1296C226922900C6C228822E7
:100390000519CC299013CD2990176922910BC529F5
:1003A0006C2269226C2269227122080077211511C2
:1003B00006160F08003A0319F0290F089F3A03198F
:1003C000F2290F089D3A0319FE290F089C3A0319D8
:1003D000FA29151E0F28FA200F28FA304F2108009D
:1003E0004B220F28ED217A22A0304F217A22803033
:1003F0004F210F28ED217721ED210F28ED217721C5
:100400000F089B00603A03190E2A17110F191715D0
:1004100097118F1997156222ED210F281B084F2184
:100420007A22ED210F281008113A03193E2A1008EC
:10043000143A03193F2A10085A3A0319412A10089E
:100440004A3A0319402A10081F3A03193C2A100897
:10045000273A03193B2A10082F3A03193D2A10089E
:100460001008683C0318FF3410087E3C031CFF345E
:1004700069301002352B773478347934353472345E
:1004800041341C34FF309621BD217A22BD21100851
:10049000AA3A031D43219512151397019B01F330CE
:1004A0009621BD2120309621BD2195179714622AEF
:1004B00095139710622A1715622A1711622A971549
:1004C000622A9711ED309621BD2117089621BD2192
:1004D0000800851D692A080085196C2A0800851006
:1004E0000800851408000510080005140800051010
:1004F00085100800810101300102031C7B2A8B2238
:100500008B22080015308C008C0B842A0000080018
:10051000892A8A2A080088228822080005308D004E
:1005200064308E0098228E0B922A8D0B902A080040
:0C05300081010C300102031C992A080014
:06066A00930003308A003A
:10067000130882073634FF343B343E34FF34FF34F2
:10068000FF34383439343D34FF343C343A34FF34A9
:10069000FF34FF34FF343734FF34613436340530EF
:1006A0009800552384304F21FF34BD21980B552BE2
:1006B000FF349300833C03185E2BFF3403308A0021
:1006C00013088207FF346A34FF34663464346234BA
:1006D00063345334FF346B346934673465340F3416
:1006E0000D34FF34FF347334703472347434103486
:1006F00001345134FF34FF3429341E341D34113495
:1007000002343434FF342B342A341F34123404348A
:1007100003347834FF3434342C3420341434133418
:100720000534FF34FF342E342D3422342134153473
:100730000634FF34FF34FF342F34233416340734A7
:100740000834FF34FF3430342434173418340A3476
:100750000934FF34FF34313432342534263419342B
:100760000B34FF34FF3433342734FF341A340C3461
:10077000FF34FF34713470341C341B34FF3428349C
:10078000FF34FF34FF343334FF34FF343534FF3467
:100790000E345134FF344A340D3446344234FF347D
:1007A000FF34FF344E3450344B34473448344334F0
:1007B0000034FE34523449344C34403445344434EB
:1007C0003F34FF34FF34FF34FF3468349300033088
:1007D0008A001308820736340D343B343E34FF342C
:1007E000FF34FF34383439343D34FF343C343A3448
:1007F0000034FE34523449343734403445343634CE
:084000000000000000000000B8
:02400E00F23F7F
:00000001FF
