:100000008316FC308500EB3086008312640081018A
:10001000831686308100831281011F213D229510B5
:100020007222061CD129051911280612B8211008C0
:10003000F03A031D1E289514B82125281008E23C2B
:10004000031C0F28900803190F281008E03A031921
:1000500076281008E13A03191629951B3B28100849
:10006000683C03183B2810087D3C031C3B28693082
:100070001002E6233D28100859238F00FF3A031988
:100080000F280F08713A03194A281008773A031904
:10009000692873289518582819080F0603190F287E
:1000A000951A5528562295168D2858229512BE2845
:1000B000FF3099000F289518582819080F060319C2
:1000C0000F28151B66285A2215178D285C22151338
:1000D000BE2895180F28951B6F2850220F285322F1
:1000E0000F2874308F009518B6288D289510B821E8
:1000F0001008F03A031D7E289514B8211008123A12
:1001000003190F281008593A03190F280E228F00DF
:10011000FF3A03190F289518B6280F081906031976
:1001200094289519AA28B1280F089900DC200F08F7
:10013000733A0319A8280F08743A0319A8280F085E
:10014000383A0319A8280F08703A0319A828C520BF
:1001500015160F280F08980019088F00DC201808C2
:100160008F0095150F0899004C210F289511151235
:100170000C21FF3099008F174C210F289511151273
:100180000C218F130F089900BB288F174C21752263
:1001900075227522752219087F394B21D620080057
:1001A0001E3091009422910BD22808000A30910051
:1001B0009422910BD8280800033091001A30840053
:1001C0000F08000603190800840A910BE028033089
:1001D00091001A3084000008FF3A0319F328840ABA
:1001E000910BEB2808000F088000080003309200F4
:1001F0001A3084000008FF3A03190229D0200008B1
:100200007F394B21840A920BFA28033092001A306E
:1002100084000C2115120800033091001A3084006C
:10022000FF308000840A910B1029080007309800E5
:10023000552360304B21D020E0304B210F28950111
:10024000960197019B0185011430860001309800CA
:10025000B8211008AA3A03193029980B28293F2100
:1002600006128F019001FF309900033091001A307F
:100270008400FF308000840A910B39290800722223
:100280000330930006168A228A2206128A228A22C4
:10029000930B422908008F0086184C2994010830DE
:1002A000910006115329542955297B228F0C0318DC
:1002B0005B2906115D290615940A910B52297B22B0
:1002C00081221418652906156729061100007B2272
:1002D000812206157B2281226D29080086186E294D
:1002E0000800061871290000FF308F0008309200C6
:1002F00081228722061C7E29151108007B2281227B
:1003000081298F0C061C86298F1788298F130000DE
:100310007B228A29920B80297B2281228F298122AC
:10032000080090009401083091006C227022752220
:100330006A22812267228722900C0318A129702249
:10034000A3296E22940A6422910B9A29672287229C
:100350001418AC296E22AD297022642267228722EC
:100360006E22642267226422051DB4296C220800D3
:1003700072229001083091000519BC29672264227D
:10038000900C672281220519C7299013C82990175C
:100390006422910BC02967226422672264226C22A6
:1003A00008007121151106160F08003A0319EB29F0
:1003B0000F089F3A0319ED290F089D3A0319F929EF
:1003C0000F089C3A0319F529151E0F28F6200F284F
:1003D000FA304B21080046220F28E8217522A03070
:1003E0004B21752280304B210F28E8217121E82113
:1003F0000F28E82171210F089B00603A0319092A90
:1004000017110F19171517108F1917145D22E821EE
:100410000F281B084B217522E8210F281008113ADC
:100420000319392A1008143A03193A2A10085A3ABB
:1004300003193C2A10084A3A03193B2A10081F3AAC
:100440000319372A1008273A0319362A10082F3AB9
:100450000319382A10081008683C0318FF341008E4
:100460007E3C031CFF3469301002352B773478341E
:1004700079347334743441341C34FF309121B82101
:100480007522B8211008AA3A031D3F2195121513B1
:1004900097019B01F3309121B82120309121B8219F
:1004A000951797145D2A951397105D2A17155D2AE5
:1004B00017115D2A17145D2A1710ED309121B8210C
:1004C00017089121B8210800851D642A08008519A4
:1004D000672A080085100800851408000510080028
:1004E0000514080005108510080081010230010282
:1004F000031C762A080024308C008C0B7D2A000017
:100500000800822A832A842A852A00000800812282
:100510008122080005308D0062308E0094228E0BFF
:100520008E2A8D0B8C2A0800810114300102031CD5
:04053000952A080000
:06066A00930003308A003A
:10067000130882073634FF343B343E34FF34FF34F2
:10068000FF34383439343D34FF343C343A34FF34A9
:10069000FF34FF34FF343734FF34613436340530EF
:1006A0009800552384304B21FF34B821980B552BEB
:1006B000FF349300833C03185E2BFF3403308A0021
:1006C00013088207FF346A34FF34663464346234BA
:1006D00063345334FF346B346934673465340F3416
:1006E0000D34FF34FF347334703472347434103486
:1006F00001345134FF34FF3429341E341D34113495
:1007000002343434FF342B342A341F34123404348A
:1007100003347834FF3434342C3420341434133418
:100720000534FF34FF342E342D3422342134153473
:100730000634FF34FF34FF342F34233416340734A7
:100740000834FF34FF3430342434173418340A3476
:100750000934FF34FF34313432342534263419342B
:100760000B34FF34FF3433342734FF341A340C3461
:10077000FF34FF34713470341C341B34FF3428349C
:10078000FF34FF34FF343334FF34FF343534FF3467
:100790000E345134FF344A340D3446344234FF347D
:1007A000FF34FF344E3450344B34473448344334F0
:1007B0000034FE34523449344C34403445344434EB
:1007C0003F34FF34FF34FF34FF3468349300033088
:1007D0008A001308820736340D343B343E34FF342C
:1007E000FF34FF34383439343D34FF343C343A3448
:1007F0000034FE34523449343734403445343634CE
:084000000000000000000000B8
:02400E00F23F7F
:00000001FF
