:1000000083160C308500E430860083128B01640077
:10001000810183160630810083128101850114233A
:10002000FD30860099019A018F0190019B01A30187
:100030000830A1002622EA21AA30D02281010B112A
:100040002630A00014231919282899192828861069
:10005000051D662919194D2899194D28061D58287E
:100060000B1D28280B11991E4328191E4328A30A8B
:100070002308263A031D432886141F088F00991071
:100080002430A3006728A00B28282630A000191CC4
:100090001E28191010308606CA290B1D28280B119E
:1000A000A10B28280830A100191419119911C8288A
:1000B000061219129910FF309F00612203181E28A2
:1000C0008F1F65289914A30167281916A3018F13A0
:1000D0000F08683A031D7128833098009918C828C2
:1000E000AA280F08553A0319EC280F08613A03199A
:1000F0000C290F08743A031954210F08703A031998
:100100005A210F08733A031960210F08713A031D31
:100110008C281915191297280F08723A031D932875
:100120009915191297280F084D3A031942290F08FB
:1001300077239800FF3A03191E281919A328991943
:10014000A3289918AF28981FAA28E030D02204309D
:10015000582398130F089F001808D0221E280F0854
:10016000003A031DB5281A14C3280F08743A031D5A
:10017000BB289A14C3280F08703A031DC1281A150A
:10018000C328F8309A05981FC828E030C922981370
:10019000F030D022043058231808D0221A0807392A
:1001A000073A031D1E28F8309A0500302623013A2D
:1001B0000319E62800302623023A0319E0281E28F6
:1001C0000030A40001301723EA211E280030A400CB
:1001D00002301723EA211E2899181E289A1901298E
:1001E000E130C9221430C9227730C922E130C92256
:1001F000F030C9221430C922F030C9227730C92228
:100200001E28E030C9227E30C922E030C922F030F9
:10021000C9227E30C9221E281A182A299A182A298A
:100220001A19382999181D29E030C9221230C9221B
:10023000E030C9227C30C9221E28E030C922F030CB
:10024000C9227C30C922E030C922F030C9221230E4
:10025000C9221E2899183129E030C9227C30C922D0
:100260001E28E030C922F030C9227C30C9221E2865
:1002700099183D298430C9221E28F030C9228430C3
:10028000C9221E2899184F291230CC224E30CC2278
:10029000F030CC221230CC224D309F001E28F0309E
:1002A000CC224E30CC221E28991858299A150800C5
:1002B0009A11080099185E291A1608001A120800E7
:1002C000991864299A1608009A12080086140616CE
:1002D00095220318282810082F231008F53A03192F
:1002E000AB291008EE3A0319B3291008F43A0319A0
:1002F000AB291008F23A0319B6291008FE3A03197F
:10030000BC291008FF3A0319AD291008F03A031967
:10031000DC291008F73A0319AB291008F83A031939
:10032000AB291008F93A0319AB291008FA3A031956
:10033000AB291008F63A0319AB291008ED3A031956
:10034000C0291008F33A0319E629FE30D0221E28EE
:10035000FA30C9220800A8211E28A8214E23AA305D
:10036000C9229B01CA29EE30D0221E28A821AB3019
:10037000C9228330C9221E282508D022A8211E2880
:10038000A82195220318C12910089B002F23A8211A
:1003900019141E2870309D009B189D151B191D15E2
:1003A0009D303C2261220530582386106630582348
:1003B0001D083C2261221E28A8219522A821100890
:1003C000003A031D1E280230D0221E28A8219522A3
:1003D000A8211E289910191200302623013A03196A
:1003E000FA2900302623023A03190E2A0030A4000D
:1003F000013017239912861406164E2306124E2337
:10040000643058239C303C226122053058238610EA
:100410006430582351303C22612208000616991698
:1004200086144E2306124E230616643058239C3041
:100430003C226122053058238610643058237030E6
:100440003C226122FF30582306120800C83058238E
:10045000BE305823861495303C2261220318382A76
:100460000530582386106430582303303C22612223
:1004700005305823861008008F0086143523960116
:10048000083091000610442A452A462A35238F0C4D
:1004900003184C2A06104E2A0614960A910B432A7A
:1004A00035233B231618562A0614582A0610000036
:1004B00035233B23061435233B235E2A8610352340
:1004C000080086100A30A2008101061D702A0C3037
:1004D0000102031C652A8101A20B652A031408008E
:1004E0000000FF308F0008309C003B234123061D95
:1004F0007B2A1911080035233B237E2A8F0C061D09
:10050000832A8F17852A8F1300003523872A9C0B97
:100510007D2A35233B238C2A3B23061D8D2A352338
:10052000861435230F08031008009001083091004D
:100530000519982A643097008519A22A3B23970B46
:100540009C2AC52A4B230E234B230C233B23851DBA
:10055000C52A900C3B230519AF2A9013B02A901797
:1005600044233B23910BA32A4B230E234B230C2321
:100570004B230E234B230C234423122344230E230B
:1005800044230C231023031008003B239001031481
:100590000800D0222F230800D0220430582308005E
:1005A0009000A5003B23851DD22A051DD22A412398
:1005B00096010830910012232F230E234B230C2386
:1005C00044238519E72A102341232508D02A900CBB
:1005D0000318EC2A1223EE2A1023960A44230E2332
:1005E0004B23910BDF2A0C2344231618F92A1023DE
:1005F000FA2A122344230E234B230C2344231023D3
:1006000044230E234B230C2303100800851D062BC7
:1006100008008519092B08008510080085140800BA
:100620000510080005140800051085100800831245
:100630008800240889008316081555308900AA30DF
:10064000890088148818222B8312080083128900DD
:100650008316081408182A2B831208080800810141
:1006600002300102031C302B080024308C008C0B5C
:10067000372B000008003C2B3D2B3E2B3F2B00006E
:1006800008003B233B230800412341230800442367
:1006900041233B23080044234423080005309200F3
:1006A000643093005D23930B522B920B502B080068
:1006B0009E005D239E0B592B08008101143001021E
:0606C000031C5E2B080084
:0206EE00950075
:1006F0007E3C03187C2BFF3403308A0015088207E8
:10070000763416341E34263425342E3436343D34B3
:100710003E34463445344E3455346A3466340D34F0
:1007200015341D3424342D342C3435343C344334C6
:1007300044344D3454345B345A341C341B34233425
:100740002B34343433343B3442344B344C34523411
:100750005D341A34223421342A34323431343A3478
:10076000413449344A34513429346434FA34FD3440
:10077000F034F134F534EB34F434F234EC34E9345D
:100780007B34CA346C3475347D347C346B347334CC
:1007900074347934693472347A34FF3470344134C7
:1007A00071346734783407347E34FF347734FF345F
:1007B000FF34FF34FF34FF34FF34FF34EC34FF34B4
:1007C0000E34FF340534063404340C3403340B3453
:1007D00083340A3401340934FF34FF34FF34FF34E6
:1007E00012345834133411341434FF34FF349F342A
:1007F000A734AF34FF34FF34FF345934FF34FF34AF
:084000000000000000000100B7
:02400E00F23F7F
:00000001FF
