:1000000083160C308500E430860083128B01640077
:100010008101831606308100831281018501152339
:10002000FD30860099019A018F0190019B01A30187
:100030000530A1002622EA21AA30D12281010B112C
:100040001830A00015231919282899192828861076
:10005000051D662919194D2899194D28061D58287E
:100060000B1D28280B11991E4328191E4328A30A8B
:100070002308183A031D432886141F088F0099107F
:100080001730A3006728A00B28281830A000191CDF
:100090001E28191010308606CA290B1D28280B119E
:1000A000A10B28280530A100191419119911C8288D
:1000B000061219129910FF309F00632203181E28A0
:1000C0008F1F65289914A30167281916A3018F13A0
:1000D0000F08683A031D7128833098009918C828C2
:1000E000AA280F08553A0319EC280F08613A03199A
:1000F0000C290F08743A031954210F08703A031998
:100100005A210F08733A031960210F08713A031D31
:100110008C281915191297280F08723A031D932875
:100120009915191297280F084D3A031942290F08FB
:1001300077239800FF3A03191E281919A328991943
:10014000A3289918AF28981FAA28E030D12204309C
:10015000582398130F089F001808D1221E280F0853
:10016000003A031DB5281A14C3280F08743A031D5A
:10017000BB289A14C3280F08703A031DC1281A150A
:10018000C328F8309A05981FC828E030CA2298136F
:10019000F030D122043058231808D1221A08073928
:1001A000073A031D1E28F8309A0500302723013A2C
:1001B0000319E62800302723023A0319E0281E28F5
:1001C0000030A40001301823EA211E280030A400CA
:1001D00002301823EA211E2899181E289A1901298D
:1001E000E130CA221430CA227730CA22E130CA2252
:1001F000F030CA221430CA22F030CA227730CA2224
:100200001E28E030CA227E30CA22E030CA22F030F6
:10021000CA227E30CA221E281A182A299A182A2988
:100220001A19382999181D29E030CA221230CA2219
:10023000E030CA227C30CA221E28E030CA22F030C8
:10024000CA227C30CA22E030CA22F030CA221230E0
:10025000CA221E2899183129E030CA227C30CA22CD
:100260001E28E030CA22F030CA227C30CA221E2862
:1002700099183D298430CA221E28F030CA228430C1
:10028000CA221E2899184F291230CD224E30CD2275
:10029000F030CD221230CD224D309F001E28F0309C
:1002A000CD224E30CD221E28991858299A150800C3
:1002B0009A11080099185E291A1608001A120800E7
:1002C000991864299A1608009A12080086140616CE
:1002D000962203182828100830231008F53A03192D
:1002E000AB291008EE3A0319B3291008F43A0319A0
:1002F000AB291008F23A0319B6291008FE3A03197F
:10030000BC291008FF3A0319AD291008F03A031967
:10031000DC291008F73A0319AB291008F83A031939
:10032000AB291008F93A0319AB291008FA3A031956
:10033000AB291008F63A0319AB291008ED3A031956
:10034000C0291008F33A0319E629FE30D1221E28ED
:10035000FA30CA220800A8211E28A8214E23AA305C
:10036000CA229B01CA29EE30D1221E28A821AB3017
:10037000CA228330CA221E282508D122A8211E287D
:10038000A82196220318C12910089B003023A82118
:1003900019141E2870309D009B189D151B191D15E2
:1003A0009D303C2263220530582386106630582346
:1003B0001D083C2263221E28A8219622A82110088D
:1003C000003A031D1E280230D1221E28A8219622A1
:1003D000A8211E289910191200302723013A031969
:1003E000FA2900302723023A03190E2A0030A4000C
:1003F000013018239912861406164E2306124E2336
:10040000643058239C303C226322053058238610E8
:100410006430582351303C22632208000616991696
:1004200086144E2306124E230616643058239C3041
:100430003C226322053058238610643058237030E4
:100440003C226322FF30582306120800C83058238C
:10045000BE305823861495303C2263220318382A74
:100460000530582386106430582303303C22632221
:1004700005305823861008008F0086143723960114
:10048000083091000610442A452A000037238F0CBB
:1004900003184D2A00000610502A0614960A000080
:1004A000910B462A37233D231618582A06145A2A38
:1004B0000610000037233D23061437233D23602A0E
:1004C00086103723080086100A30A2008101061D1D
:1004D000722A0C300102031C672A8101A20B672AD1
:1004E00003140800732A0000FF308F0008309C00BE
:1004F0004123061D7D2A1911080037233D23802A38
:100500008F0C061D852A8F17872A8F13000037232B
:100510009C0B802A37233D238D2A3D23061D8E2ADE
:100520003723861437230F08031008009001083082
:1005300091000519992A643097008519A32A3D2353
:10054000970B9D2AC62A4B230F234B230D233D23B4
:10055000851DC62A900C3D230519B02A9013B12A97
:10056000901744233D23910BA42A4B230F234B23A5
:100570000D234B230F234B230D2344231323442309
:100580000F2344230D231123031008003D23900162
:1005900003140800D12230230800D122043058234C
:1005A00008009000A5003D23851DD32A051DD32AF0
:1005B0004123960108309100132330230F234B234E
:1005C0000D2344238519E82A112341232508D12A24
:1005D000900C0318ED2A1323EF2A1123960A4423C3
:1005E0000F234B23910BE02A0D2344231618FA2ADC
:1005F0001123FB2A132344230F234B230D234423CE
:10060000112344230F234B230D2303100800851DC2
:10061000072B080085190A2B08008510080085148F
:1006200008000510080005140800051085100800D2
:100630008312880024088900831608155530890024
:10064000AA30890088148818232B8312080083128B
:1006500089008316081408182B2B83120808080039
:10066000810101300102031C312B442308001530A5
:100670008C008C0B392B0000080000003F2B000081
:1006800008003D233D230800412341230800442363
:1006900041233D23080044234423080005309200F1
:1006A000643093005D23930B522B920B502B080068
:1006B0009E005D239E0B592B080081010C30010226
:0606C000031C5E2B080084
:0206EE00950075
:1006F0007E3C03187C2BFF3403308A0015088207E8
:10070000763416341E34263425342E3436343D34B3
:100710003E34463445344E3455346A3466340D34F0
:1007200015341D3424342D342C3435343C344334C6
:1007300044344D3454345B345A341C341B34233425
:100740002B34343433343B3442344B344C34523411
:100750005D341A34223421342A34323431343A3478
:10076000413449344A34513429346434FA34FD3440
:10077000F034F134F534EB34F434F234EC34E9345D
:100780007B34CA346C3475347D347C346B347334CC
:1007900074347934693472347A34FF3470344134C7
:1007A00071346734783407347E34FF347734FF345F
:1007B000FF34FF34FF34FF34FF34FF34EC34FF34B4
:1007C0000E34FF340534063404340C3403340B3453
:1007D00083340A3401340934FF34FF34FF34FF34E6
:1007E00012345834133411341434FF34FF349F342A
:1007F000A734AF34FF34FF34FF345934FF34FF34AF
:084000000000000000000100B7
:02400E00F23F7F
:00000001FF
