:020000040000FA
:10000000850107309F0083160C308500E4308600A0
:1000100083128B01640081018316063081008312F4
:10002000810185012623FD308600AD01AE01A301CB
:10003000A401AF01B7010830B5003822FC21AA3075
:10004000E22281010B112630B40026232D192B2822
:10005000AD192B288610051D78292D195028AD19AA
:100060005028061D5B280B1D2B280B11AD1E4628A2
:100070002D1E4628B70A3708263A031D462886143F
:100080003308A300AD102430B7006A28B40B2B2826
:100090002630B4002D1C21282D1010308606DC29B6
:1000A0000B1D2B280B11B50B2B280830B5002D1478
:1000B0002D11AD11DA2806122D12AD10FF30B3004C
:1000C000732203182128A31F6828AD14B7016A28DA
:1000D0002D16B701A3132308683A031D7428833033
:1000E000AC00AD18DA28BC282308553A0319FE28BD
:1000F0002308613A03191E292308743A031966215B
:100100002308703A03196C212308733A03197221EA
:100110002308713A031D8F282D152D129A282308C4
:10012000723A031D9628AD152D129A2823084D3AD0
:100130000319542923087723AC00FF3A0319212817
:100140002E1EAF282C08553A0319AB282C08543A18
:100150000319AD28AF285430AE285530AC002D1906
:10016000B528AD19B528AD18C128AC1FBC28E030A2
:10017000E22204306B23AC132308B3002C08E222E4
:1001800021282308003A031DC7282E14D528230848
:10019000743A031DCD28AE14D5282308703A031DE8
:1001A000D3282E15D528F830AE05AC1FDA28E0305C
:1001B000DB22AC13F030E22204306B232C08E22265
:1001C0002E080739073A031D2128F830AE05003004
:1001D0003923013A0319F82800303923023A031968
:1001E000F22821280030B80001302923FC212128E1
:1001F0000030B80002302923FC212128AD18212825
:10020000AE191329E130DB221430DB227730DB22F8
:10021000E130DB22F030DB221430DB22F030DB2255
:100220007730DB222128E030DB227E30DB22E03019
:10023000DB22F030DB227E30DB2221282E183C2905
:10024000AE183C292E194A29AD182F29E030DB229F
:100250001230DB22E030DB227C30DB222128E03050
:10026000DB22F030DB227C30DB22E030DB22F0309E
:10027000DB221230DB222128AD184329E030DB22BB
:100280007C30DB222128E030DB22F030DB227C30A6
:10029000DB222128AD184F298430DB222128F030C1
:1002A000DB228430DB222128AD1861291230DE22C6
:1002B0004E30DE22F030DE221230DE224D30B3002E
:1002C0002128F030DE224E30DE222128AD186A29A6
:1002D000AE150800AE110800AD1870292E160800E2
:1002E0002E120800AD187629AE160800AE120800CE
:1002F00086140616A72203182B2824084223240854
:10030000F53A0319BD292408EE3A0319C529240832
:10031000F43A0319BD292408F23A0319C82924081C
:10032000FE3A0319CE292408FF3A0319BF292408ED
:10033000F03A0319EE292408F73A0319BD292408D5
:10034000F83A0319BD292408F93A0319BD292408EC
:10035000FA3A0319BD292408F63A0319BD292408DD
:10036000ED3A0319D2292408F33A0319F829FE308B
:10037000E2222128FA30DB220800BA212128BA2102
:100380006123AA30DB22AF01DC29EE30E2222128F2
:10039000BA21AB30DB228330DB2221283908E2226C
:1003A000BA212128BA21A7220318D3292408AF0093
:1003B0004223BA212D1421287030B100AF18B11595
:1003C0002F1931159D304E22732205306B23861074
:1003D00066306B2331084E2273222128BA21A722CE
:1003E000BA212408003A031D21280230E2222128E4
:1003F000BA21A722BA212128AD102D1200303923AD
:10040000013A03190C2A00303923023A0319202A31
:100410000030B80001302923AD128614061661237E
:100420000612612364306B239C304E227322053008
:100430006B23861064306B2351304E2273220800E8
:100440000616AD1686146123061261230616643063
:100450006B239C304E22732205306B238610643050
:100460006B2370304E227322FF306B23061208007C
:10047000C8306B23BE306B23861495304E22732216
:1004800003184A2A05306B23861064306B2303302F
:100490004E22732205306B2386100800A3008614B9
:1004A0004823AA010830A5000610562A572A582AC0
:1004B0004823A30C03185E2A0610602A0614AA0A11
:1004C000A50B552A48234E232A18682A06146A2A9F
:1004D0000610000048234E23061448234E23702A9A
:1004E00086104823080086100A30B6008101061DD8
:1004F000822A0C300102031C772A8101B60B772A6D
:10050000031408000000FF30A3000830B0004E23A1
:100510005423061D8D2A2D11080048234E23902AAE
:10052000A30C061D952AA317972AA313000048239E
:10053000992AB00B8F2A48234E239E2A4E23061D4C
:100540009F2A482386144823230803100800A40187
:100550000830A5000519AA2A6430AB008519B42A11
:100560004E23AB0BAE2AD72A5E2320235E231E2305
:100570004E23851DD72AA40C4E230519C12AA41386
:10058000C22AA41757234E23A50BB52A5E23202386
:100590005E231E235E2320235E231E235723242352
:1005A0005723202357231E232223031008004E2302
:1005B000A40103140800E22242230800E2220430CE
:1005C0006B230800A400B9004E23851DE42A051DF5
:1005D000E42A5423AA010830A5002423422320231F
:1005E0005E231E2357238519F92A22235423390811
:1005F000E22AA40C0318FE2A2423002B2223AA0A91
:10060000572320235E23A50BF12A1E2357232A18E4
:100610000B2B22230C2B2423572320235E231E2362
:1006200057232223572320235E231E230310080071
:10063000851D182B080085191B2B08008510080044
:100640008514080005100800051408000510851021
:10065000080083169A008312380883169B001C1525
:1006600055309D00AA309D009C149C18352B831298
:100670000800831283169B001C141C183D2B1A08BB
:1006800083120800810102300102031C432B080081
:100690002430A000A00B4A2B000008004F2B502B49
:1006A000512B522B000008004E234E2308005423E8
:1006B00054230800572354234E230800572357235D
:1006C00008000530A6006430A7007023A70B652B37
:1006D000A60B632B0800B2007023B20B6C2B080032
:0C06E000810114300102031C712B080082
:0206EE00A90061
:1006F0007E3C03187C2BFF3403308A0029088207D4
:10070000763416341E34263425342E3436343D34B3
:100710003E34463445344E3455346A3466340D34F0
:1007200015341D3424342D342C3435343C344334C6
:1007300044344D3454345B345A341C341B34233425
:100740002B34343433343B3442344B344C34523411
:100750005D341A34223421342A34323431343A3478
:10076000413449344A34513429346434FA34FD3440
:10077000F034F134F534EB34F434F234EC34E9345D
:100780007B34CA346C3475347D347C346B347334CC
:1007900074347934693472347A34FF3470344134C7
:1007A00071346734783407347E34FF347734FF345F
:1007B000FF34FF34FF34FF34FF34FF34EC34FF34B4
:1007C0000E34FF340534063404340C3403340B3453
:1007D00083340A3401340934FF34FF34FF34FF34E6
:1007E00012345834133411341434FF34FF349F342A
:1007F000A734AF34FF34FF34FF345934FF34FF34AF
:04080000003400348C
:084000000000000000000100B7
:02400E00623F0F
:00000001FF
