:020000040000FA
:10000000850107309F0083160C308500E4308600A0
:1000100083128B01640081018316063081008312F4
:10002000810185012723FD308600AD01AE01A301CA
:10003000A401AF01B7010530B5003822FC21AA3078
:10004000E32281010B111830B40027232D192B282E
:10005000AD192B288610051D78292D195028AD19AA
:100060005028061D5B280B1D2B280B11AD1E4628A2
:100070002D1E4628B70A3708183A031D462886144D
:100080003308A300AD101730B7006A28B40B2B2833
:100090001830B4002D1C21282D1010308606DC29C4
:1000A0000B1D2B280B11B50B2B280530B5002D147B
:1000B0002D11AD11DA2806122D12AD10FF30B3004C
:1000C000752203182128A31F6828AD14B7016A28D8
:1000D0002D16B701A3132308683A031D7428833033
:1000E000AC00AD18DA28BC282308553A0319FE28BD
:1000F0002308613A03191E292308743A031966215B
:100100002308703A03196C212308733A03197221EA
:100110002308713A031D8F282D152D129A282308C4
:10012000723A031D9628AD152D129A2823084D3AD0
:100130000319542923087723AC00FF3A0319212817
:100140002E1EAF282C08553A0319AB282C08543A18
:100150000319AD28AF285430AE285530AC002D1906
:10016000B528AD19B528AD18C128AC1FBC28E030A2
:10017000E32204306B23AC132308B3002C08E322E2
:1001800021282308003A031DC7282E14D528230848
:10019000743A031DCD28AE14D5282308703A031DE8
:1001A000D3282E15D528F830AE05AC1FDA28E0305C
:1001B000DC22AC13F030E32204306B232C08E32262
:1001C0002E080739073A031D2128F830AE05003004
:1001D0003A23013A0319F82800303A23023A031966
:1001E000F22821280030B80001302A23FC212128E0
:1001F0000030B80002302A23FC212128AD18212824
:10020000AE191329E130DC221430DC227730DC22F5
:10021000E130DC22F030DC221430DC22F030DC2251
:100220007730DC222128E030DC227E30DC22E03016
:10023000DC22F030DC227E30DC2221282E183C2902
:10024000AE183C292E194A29AD182F29E030DC229E
:100250001230DC22E030DC227C30DC222128E0304D
:10026000DC22F030DC227C30DC22E030DC22F0309A
:10027000DC221230DC222128AD184329E030DC22B8
:100280007C30DC222128E030DC22F030DC227C30A3
:10029000DC222128AD184F298430DC222128F030BF
:1002A000DC228430DC222128AD1861291230DF22C3
:1002B0004E30DF22F030DF221230DF224D30B3002B
:1002C0002128F030DF224E30DF222128AD186A29A4
:1002D000AE150800AE110800AD1870292E160800E2
:1002E0002E120800AD187629AE160800AE120800CE
:1002F00086140616A82203182B2824084323240852
:10030000F53A0319BD292408EE3A0319C529240832
:10031000F43A0319BD292408F23A0319C82924081C
:10032000FE3A0319CE292408FF3A0319BF292408ED
:10033000F03A0319EE292408F73A0319BD292408D5
:10034000F83A0319BD292408F93A0319BD292408EC
:10035000FA3A0319BD292408F63A0319BD292408DD
:10036000ED3A0319D2292408F33A0319F829FE308B
:10037000E3222128FA30DC220800BA212128BA2100
:100380006123AA30DC22AF01DC29EE30E3222128F0
:10039000BA21AB30DC228330DC2221283908E32269
:1003A000BA212128BA21A8220318D3292408AF0092
:1003B0004323BA212D1421287030B100AF18B11594
:1003C0002F1931159D304E22752205306B23861072
:1003D00066306B2331084E2275222128BA21A822CB
:1003E000BA212408003A031D21280230E3222128E3
:1003F000BA21A822BA212128AD102D1200303A23AB
:10040000013A03190C2A00303A23023A0319202A30
:100410000030B80001302A23AD128614061661237D
:100420000612612364306B239C304E227522053006
:100430006B23861064306B2351304E2275220800E6
:100440000616AD1686146123061261230616643063
:100450006B239C304E22752205306B23861064304E
:100460006B2370304E227522FF306B23061208007A
:10047000C8306B23BE306B23861495304E22752214
:1004800003184A2A05306B23861064306B2303302F
:100490004E22752205306B2386100800A3008614B7
:1004A0004A23AA010830A5000610562A572A000040
:1004B0004A23A30C03185F2A00000610622A0614C0
:1004C000AA0A0000A50B582A4A2350232A186A2A90
:1004D00006146C2A061000004A23502306144A23EF
:1004E0005023722A86104A23080086100A30B6006C
:1004F0008101061D842A0C300102031C792A810126
:10050000B60B792A03140800852A0000FF30A300E7
:100510000830B0005423061D8F2A2D1108004A23ED
:100520005023922AA30C061D972AA317992AA313D6
:1005300000004A23B00B922A4A2350239F2A5023BB
:10054000061DA02A4A2386144A2323080310080004
:10055000A4010830A5000519AB2A6430AB00851949
:10056000B52A5023AB0BAF2AD82A5E2321235E2362
:100570001F235023851DD82AA40C50230519C22AF5
:10058000A413C32AA41757235023A50BB62A5E230E
:1005900021235E231F235E2321235E231F23572352
:1005A00025235723212357231F2323230310080028
:1005B0005023A40103140800E32243230800E3228C
:1005C00004306B230800A400B9005023851DE52AE0
:1005D000051DE52A5423AA010830A500252343233D
:1005E00021235E231F2357238519FA2A232354230B
:1005F0003908E32AA40C0318FF2A2523012B2323FF
:10060000AA0A572321235E23A50BF22A1F2357236F
:100610002A180C2B23230D2B2523572321235E235C
:100620001F2357232323572321235E231F23031034
:100630000800851D192B080085191C2B0800851042
:1006400008008514080005100800051408000510AE
:100650008510080083169A008312380883169B00C1
:100660001C1555309D00AA309D009C149C18362BFB
:1006700083120800831283169B001C141C183E2B47
:100680001A0883120800810101300102031C442B67
:10069000572308001530A000A00B4C2B00000800C9
:1006A0000000522B00000800502350230800542360
:1006B000542308005723542350230800572357235B
:1006C00008000530A6006430A7007023A70B652B37
:1006D000A60B632B0800B2007023B20B6C2B080032
:0C06E00081010C300102031C712B08008A
:0206EE00A90061
:1006F0007E3C03187C2BFF3403308A0029088207D4
:10070000763416341E34263425342E3436343D34B3
:100710003E34463445344E3455346A3466340D34F0
:1007200015341D3424342D342C3435343C344334C6
:1007300044344D3454345B345A341C341B34233425
:100740002B34343433343B3442344B344C34523411
:100750005D341A34223421342A34323431343A3478
:10076000413449344A34513429346434FA34FD3440
:10077000F034F134F534EB34F434F234EC34E9345D
:100780007B34CA346C3475347D347C346B347334CC
:1007900074347934693472347A34FF3470344134C7
:1007A00071346734783407347E34FF347734FF345F
:1007B000FF34FF34FF34FF34FF34FF34EC34FF34B4
:1007C0000E34FF340534063404340C3403340B3453
:1007D00083340A3401340934FF34FF34FF34FF34E6
:1007E00012345834133411341434FF34FF349F342A
:1007F000A734AF34FF34FF34FF345934FF34FF34AF
:084000000000000000000100B7
:02400E00623F0F
:00000001FF
