:100000008316FC308500EB3086008312640081018A
:1000100083168630810083128101232141229510AD
:100020007622061CD529051911280612BC211008B4
:10003000F03A031D1E289514BC2125281008E23C27
:10004000031C0F28900803190F281008E03A031921
:100050007A281008E13A03191A29951B3B28100841
:10006000683C03183B2810087D3C031C3B28693082
:100070001002E6233D28100859238F00FF3A031988
:100080000F280F08713A03194E281008133A031964
:100090005F281008773A03196D28772895185C288F
:1000A00019080F0603190F28951A59285A22951670
:1000B00091285C229512C228FF3099000F289518CC
:1000C0005C2819080F0603190F28151B6A285E22E1
:1000D0001517912860221513C22895180F28951B13
:1000E000732854220F2857220F2874308F00951838
:1000F000BA2891289510BC211008F03A031D8228D7
:100100009514BC211008123A03190F281008593A07
:1001100003190F2812228F00FF3A03190F28951890
:10012000BA280F081906031998289519AE28B5287A
:100130000F089900E0200F08733A0319AC280F0844
:10014000743A0319AC280F08383A0319AC280F0881
:10015000703A0319AC28C92015160F280F0898000B
:1001600019088F00E02018088F0095150F089900D6
:1001700050210F28951115121021FF3099008F176B
:1001800050210F289511151210218F130F08990077
:10019000BF288F17502179227922792279221908D4
:1001A0007F394F21DA2008001E3091009822910BF0
:1001B000D62808000A3091009822910BDC2808000C
:1001C000033091001A3084000F080006031908005C
:1001D000840A910BE428033091001A30840000084F
:1001E000FF3A0319F728840A910BEF2808000F083B
:1001F00080000800033092001A3084000008FF3AA3
:1002000003190629D42000087F394F21840A920B54
:10021000FE28033092001A308400102115120800C5
:10022000033091001A308400FF308000840A910B63
:100230001429080007309800552360304F21D4203E
:10024000E0304F210F289501960197019B01850110
:100250001430860001309800BC211008AA3A031916
:100260003429980B2C29432106128F019001FF306D
:100270009900033091001A308400FF308000840A16
:10028000910B3D29080076220330930006168E223A
:100290008E2206128E228E22930B462908008F0092
:1002A00086185029940108309100061157295829C1
:1002B00059297F228F0C03185F2906116129061521
:1002C000940A910B56297F22852214186929061554
:1002D0006B29061100007F22852206157F228522C8
:1002E000712908008618722908000618752900006F
:1002F000FF308F000830920085228B22061C822955
:10030000151108007F22852285298F0C061C8A2959
:100310008F178C298F1300007F228E29920B84293E
:100320007F228522932985220800900094010830BD
:1003300091007022742279226E2285226B228B22F8
:10034000900C0318A5297422A7297222940A682206
:10035000910B9E296B228B221418B0297222B1298D
:10036000742268226B228B22722268226B226822FE
:10037000051DB829702208007622900108309100EE
:100380000519C0296B226822900C6B228522051961
:10039000CB299013CC2990176822910BC4296B228A
:1003A00068226B226822702208007521151106163A
:1003B0000F08003A0319EF290F089F3A0319F12992
:1003C0000F089D3A0319FD290F089C3A0319F929D2
:1003D000151E0F28FA200F28FA304F2108004A2254
:1003E0000F28EC217922A0304F21792280304F2133
:1003F0000F28EC217521EC210F28EC2175210F0825
:100400009B00603A03190D2A17110F1917151710C1
:100410008F1917146122EC210F281B084F21792214
:10042000EC210F281008113A03193D2A1008143A3C
:1004300003193E2A10085A3A0319402A10084A3A6A
:1004400003193F2A10081F3A03193B2A1008273ABC
:1004500003193A2A10082F3A03193C2A10081008E9
:10046000683C0318FF3410087E3C031CFF346930DD
:100470001002352B77347834793473347434413442
:100480001C34FF309521BC217922BC211008AA3AE6
:10049000031D43219512151397019B01F3309521FC
:1004A000BC2120309521BC2195179714612A951302
:1004B0009710612A1715612A1711612A1714612AEA
:1004C0001710ED309521BC2117089521BC2108009B
:1004D000851D682A080085196B2A08008510080008
:1004E0008514080005100800051408000510851083
:1004F0000800810102300102031C7A2A080024301E
:100500008C008C0B812A00000800862A872A882A02
:10051000892A0000080085228522080005308D0008
:1005200062308E0098228E0B922A8D0B902A080042
:0C053000810114300102031C992A08000C
:06066A00930003308A003A
:10067000130882073634FF343B343E34FF34FF34F2
:10068000FF34383439343D34FF343C343A34FF34A9
:10069000FF34FF34FF343734FF34613436340530EF
:1006A0009800552384304F21FF34BC21980B552BE3
:1006B000FF349300833C03185E2BFF3403308A0021
:1006C00013088207FF346A34FF34663464346234BA
:1006D00063345334FF346B346934673465340F3416
:1006E0003534FF34FF34733470347234743410345E
:1006F00001345134FF34FF3429341E341D34113495
:1007000002343434FF342B342A341F34123404348A
:1007100003347834FF3434342C3420341434133418
:100720000534FF34FF342E342D3422342134153473
:100730000634FF34FF34FF342F34233416340734A7
:100740000834FF34FF3430342434173418340A3476
:100750000934FF34FF34313432342534263419342B
:100760000B34FF34FF3433342734FF341A340C3461
:10077000FF34FF34713470341C341B34FF3428349C
:10078000FF34FF34FF343334FF34FF343534FF3467
:100790000E345134FF344A340D3446344234FF347D
:1007A000FF34FF344E3450344B34473448344334F0
:1007B0000034FE34523449344C34403445344434EB
:1007C0003F34FF34FF34FF34FF3468349300033088
:1007D0008A001308820736340D343B343E34FF342C
:1007E000FF34FF34383439343D34FF343C343A3448
:1007F0000034FE34523449343734403445343634CE
:084000000000000000000000B8
:02400E00F23F7F
:00000001FF
