:100000008316FC308500EB3086008312640081018A
:10001000831686308100831281011F213E229510B4
:100020007322061CD229051911280612B9211008BD
:10003000F03A031D1E289514B92125281008E23C2A
:10004000031C0F28900803190F281008E03A031921
:1000500076281008E13A03191629951B3B28100849
:10006000683C03183B2810087D3C031C3B28693082
:100070001002E6233D28100859238F00FF3A031988
:100080000F280F08713A03194A281008773A031904
:10009000692873289518582819080F0603190F287E
:1000A000951A5528572295168D2859229512BE2843
:1000B000FF3099000F289518582819080F060319C2
:1000C0000F28151B66285B2215178D285D22151336
:1000D000BE2895180F28951B6F2851220F285422EF
:1000E0000F2874308F009518B6288D289510B921E7
:1000F0001008F03A031D7E289514B9211008123A11
:1001000003190F281008593A03190F280F228F00DE
:10011000FF3A03190F289518B6280F081906031976
:1001200094289519AA28B1280F089900DC200F08F7
:10013000733A0319A8280F08743A0319A8280F085E
:10014000383A0319A8280F08703A0319A828C520BF
:1001500015160F280F08980019088F00DC201808C2
:100160008F0095150F0899004C210F289511151235
:100170000C21FF3099008F174C210F289511151273
:100180000C218F130F089900BB288F174C21762262
:1001900076227622762219087F394B21D620080054
:1001A0001E3091009422910BD22808000A30910051
:1001B0009422910BD8280800033091001A30840053
:1001C0000F08000603190800840A910BE028033089
:1001D00091001A3084000008FF3A0319F328840ABA
:1001E000910BEB2808000F088000080003309200F4
:1001F0001A3084000008FF3A03190229D0200008B1
:100200007F394B21840A920BFA28033092001A306E
:1002100084000C2115120800033091001A3084006C
:10022000FF308000840A910B1029080007309800E5
:10023000552360304B21D020E0304B210F28950111
:10024000960197019B0185011430860001309800CA
:10025000B9211008AA3A03193029980B28293F21FF
:1002600006128F019001FF309900033091001A307F
:100270008400FF308000840A910B39290800732222
:100280000330930006168A228A2206128A228A22C4
:10029000930B422908008F0086184C2994010830DE
:1002A000910006115329542900007E228F0C031857
:1002B0005C29000006115F290615940A0000910BC5
:1002C00055297E22842214186729061569290611EA
:1002D00000007E22842206157E2284226F290800D7
:1002E0008618702908000618732976290000FF3047
:1002F0008F00083092008722061C80291511080003
:100300007E22842283298F0C061C88298F178A2934
:100310008F1300007E22920B83297E228422902953
:100320008422080090009401083091006D2271220F
:1003300076226B22842268228722900C0318A2293D
:100340007122A4296F22940A6522910B9B296822AD
:1003500087221418AD296F22AE29712265226822E6
:1003600087226F22652268226522051DB5296D222C
:10037000080073229001083091000519BD296822F8
:100380006522900C682284220519C8299013C92976
:1003900090176522910BC129682265226822652287
:1003A0006D2208007321151106160F08003A031973
:1003B000EC290F089F3A0319EE290F089D3A0319FB
:1003C000FA290F089C3A0319F629151E0F28F62062
:1003D0000F28FA304B21080047220F28E921762206
:1003E000A0304B21762280304B210F28E921732148
:1003F000E9210F28E92173210F089B00603A0319B6
:100400000A2A17110F19171517108F1917145E22C2
:10041000E9210F281B084B217622E9210F2810081B
:10042000113A03193A2A1008143A03193B2A100802
:100430005A3A03193D2A10084A3A03193C2A10086F
:100440001F3A0319382A1008273A0319372A1008C7
:100450002F3A0319392A10081008683C0318FF3492
:1004600010087E3C031CFF3469301002352B7734B2
:10047000783479347334743441341C34FF3092212D
:10048000B9217622B9211008AA3A031D3F219512FD
:10049000151397019B01F3309221B921203092214D
:1004A000B921951797145E2A951397105E2A171590
:1004B0005E2A17115E2A17145E2A1710ED3092215A
:1004C000B92117089221B9210800851D652A080065
:1004D0008519682A08008510080085140800051091
:1004E000080005140800051085100800810101307E
:1004F0000102031C772A87228722080015308C000E
:100500008C0B802A00000800852A862A0800842295
:100510008422080005308D0064308E0094228E0BFA
:100520008E2A8D0B8C2A080081010C300102031CDD
:04053000952A080000
:06066A00930003308A003A
:10067000130882073634FF343B343E34FF34FF34F2
:10068000FF34383439343D34FF343C343A34FF34A9
:10069000FF34FF34FF343734FF34613436340530EF
:1006A0009800552384304B21FF34B921980B552BEA
:1006B000FF349300833C03185E2BFF3403308A0021
:1006C00013088207FF346A34FF34663464346234BA
:1006D00063345334FF346B346934673465340F3416
:1006E0000D34FF34FF347334703472347434103486
:1006F00001345134FF34FF3429341E341D34113495
:1007000002343434FF342B342A341F34123404348A
:1007100003347834FF3434342C3420341434133418
:100720000534FF34FF342E342D3422342134153473
:100730000634FF34FF34FF342F34233416340734A7
:100740000834FF34FF3430342434173418340A3476
:100750000934FF34FF34313432342534263419342B
:100760000B34FF34FF3433342734FF341A340C3461
:10077000FF34FF34713470341C341B34FF3428349C
:10078000FF34FF34FF343334FF34FF343534FF3467
:100790000E345134FF344A340D3446344234FF347D
:1007A000FF34FF344E3450344B34473448344334F0
:1007B0000034FE34523449344C34403445344434EB
:1007C0003F34FF34FF34FF34FF3468349300033088
:1007D0008A001308820736340D343B343E34FF342C
:1007E000FF34FF34383439343D34FF343C343A3448
:1007F0000034FE34523449343734403445343634CE
:084000000000000000000000B8
:02400E00F23F7F
:00000001FF
